:08000000803102288731FC2F3A
:100E280021000E1120000E1187311B270800230016
:100E38009F111E119C010C309B001E129D179E16BF
:100E48001D160800873114278731503087318A27CB
:100E580087314F3087318A2787314B3087318A274E
:100E68008731553087318A278731533087318A2730
:100E78008731413087318A2787314A3087318A273D
:100E88008731203087318A2787314B3087318A274D
:100E980087314F3087318A2787314D3087318A270C
:100EA8008731553087318A2787314E3087318A27F5
:100EB8008731493087318A2787314B3087318A27F4
:100EC8008731413087318A278731433087318A27F4
:100ED8008731493087318A2787314A3087318A27D5
:100EE8008731453087318A278731233087318A27F0
:100EF80087313330F600BC30F5001030F400F40BC5
:100F0800832FF50B832FF60B832F292FF200F30184
:100F1800053073020318AA2F20000E15F930F000CF
:100F28000000F00B942F0032000020000E11F93061
:100F3800F0000000F00B9D2F003200000130F0009F
:100F48007008F30705307302031C902F20000E155C
:100F58000830F100C930F000F00BB02FF10BB02FC2
:100F6800003220000E11F930F0000000F00BB92F0C
:100F780000320000F301083073020318F92F013022
:100F8800F000730AC82FF035890BC72F7008720557
:100F98000319D12F20000E15D32F20000E11F93080
:100FA800F0000000F00BD52F003200000130F000F7
:100FB800730ADF2FF035890BDE2F700872050319CD
:100FC800E82F20000E11EA2F20000E15F930F0004E
:100FD8000000F00BEC2F003200000130F000700828
:100FE800F30708307302031CC32F20000E110800FA
:080FF800F70120008731262FCC
:020000040001F9
:04000E00E2C9FFDC68
:00000001FF
