:060000000A128A11122809
:10000800FE00030EF6000408F7000A08F800831241
:1000180003137F08F9000A128A1127280A128A1185
:100028001528F001F101F201F301F401A001A10189
:10003800A201A301A4010A128A111322FA00830162
:100048000A128A11F4298B1A0B1D50280B117008FB
:100058000319D6282803031DD6280130F500750892
:10006800A00708302006031DD6280130F5007508C2
:10007800F307A0017003031D4428881608124A28B4
:1000880002307006031D4A28081688120A128A11BF
:10009800C4210A128A11D628831603138C1C7E28C1
:1000A800831203138C1C7E288C1070030319632899
:1000B80002307006031DD6282803031DD6280230F7
:1000C8007302031876280130F5007508F4078512C5
:1000D80074030319871502307406031DD628F4012A
:1000E8008711D6280430730203187C288516D62871
:1000F800F301D628831603130C1C9B2883120313C1
:100108000C1C9B280C100130F5007508A207133051
:100118002206031DD6282308031D97280230F50060
:100128007508F0009828A301A2011F15D628831688
:1001380003130C1FD628831203130C1FD6280C1385
:1001480038301E02031CB228A8010816881288112C
:10015800081188100810A401A40AD628A801A80A22
:100168002403031DD5288815881DBE288312031370
:100178000815C128831203130811081DC728831204
:1001880003138814CA28831203138810881CD028E4
:10019800831203130814D3288312031308100812B8
:1001A8008812A401790883120313FF0078088A00D3
:1001B80077088400760E8300FE0E7E0E09008312F7
:1001C8000313A701F101643071020318FB280D30F5
:1001D800A500A50BED2883120313061C08000130A7
:1001E800A5002508F10764307102031CEB280618E6
:1001F800FB28F230A50000290129A50BFF280429B6
:1002080005290000F1010830710203183E29831204
:100218000313061C1D290130A500710A15290310B6
:10022800A50DFF3E031D13292508A6002608A704CF
:100238002B290130A500710A23290310A50DFF3EC3
:10024800031D21292508FF3AA6002608A705033023
:10025800A6009730A500A50B2F29A60B2F29342916
:10026800013083120313A5002508F1070830710235
:10027800031C0B2983120313270899002A30270629
:1002880003194A2923302706031D5B292708A500DF
:100298002508F2002708A5002508A30002307006EB
:1002A800031D0800F00108128812851208002708AB
:1002B8007A06031D08002A3072060319700803190C
:1002C800692902307006031D6B29F001F00A2330FA
:1002D8007206031970030319752902307006031D8D
:1002E8007929F001081288128512F2010800F0013C
:1002F80083120313A801A80A83160313880105149F
:10030800851287110614831203130814881408151C
:100318008815081288120813851287110A128A1183
:10032800AC210A128A110A128A11D8210A128A11DA
:100338000A128A11FF210A128A110A128A110A2244
:100348000A128A110B178B170A128A11E721080063
:10035800831603139F139F151F159F141F108312D5
:1003680003139F121F129F11831603131F17831263
:1003780003139F171F171F14831603130C17080066
:10038800831203130818CB2908148810080088184A
:10039800D0298814081108000819D52908158811CA
:1003A8000800881508100800831203139214121409
:1003B8007D308316031392008312031312158316DC
:1003C80003138C140800831603131815333099008F
:1003D800181283120313981783160313981608002C
:1003E8000A128A117B210A128A110A128A11E32041
:1003F8000A128A11F9298312031390161016901104
:1004080090101014831603130C140800831603139A
:10041800811281110115811401148B1608004B34C7
:02400E003AFF77
:00000001FF
