:060000000A128A11122809
:10000800FE00030EF6000408F7000A08F800831241
:1000180003137F08F9000A128A11C8280A128A11E4
:100028001528F001F101F201F301F401A001A10189
:10003800A201A301A401A5010A128A11B321FA00A1
:1000480083010A128A117F2983120313A801F00180
:1000580064307002031840280D30A600A60B322821
:1000680083120313061C08000130A6002608F007B7
:1000780064307002031C302806184028F230A600AD
:1000880045284628A60B442849284A280000F0019C
:10009800083070020318832883120313061C622891
:1000A8000130A600700A5A280310A60DFF3E031D52
:1000B80058282608A7002708A80470280130A60099
:1000C800700A68280310A60DFF3E031D662826083F
:1000D800FF3AA7002708A8050330A7009730A60015
:1000E800A60B7428A70B74287928013083120313F0
:1000F800A6002608F00708307002031C5028831257
:100108000313280899002A30280603198F2823305A
:100118002806031D94282808A6002608A000B6284B
:100128002A302006031DA42828087A06031DA428BF
:100138002A08031DA4280130A6002608F107A528CF
:10014800F10123302006031DB52828087A06031D6F
:10015800B5282A03031DB5280130A6002608A407E0
:10016800B628A40103307106031DBD28AA01AA0AF6
:10017800F10102302406031DC328AA01A40128089E
:10018800A6002608A50008008B1A0B1DEE280B11E7
:100198002A08031937290130F5007508A207083025
:1001A8002206031D37290130F5007508F307A2015F
:1001B8002A03031DE22888160812E82802302A06B6
:1001C800031DE828081688120A128A116B210A12E0
:1001D8008A113729831603138C1C122983120313DF
:1001E8008C1C12298C100230730203180C292A0364
:1001F800031D0C290130F5007508F4077403031971
:10020800871502307406031D3729F4018711372931
:1002180004307302031C3729F301372983160313AB
:100228000C1C2629831203130C1C26290C100130E0
:10023800F5007508F20725307206031D3729F2010B
:100248001F153729831603130C1F3729831203132D
:100258000C1F37290C133D301E02031C3529A90138
:100268003729A901A90A790883120313FF0078081E
:100278008A0077088400760E8300FE0E7E0E090041
:1002880083120313AA01A901A90A8316031388017B
:100298000514851287110614831203130814881491
:1002A80008158815081288120813851287110A1272
:1002B8008A118E210A128A110A128A11AA210A1297
:1002C8008A110B178B170A128A119D2108008312B5
:1002D8000313081872290814881008008818772949
:1002E80088140811080008197C29081588110800C5
:1002F8008815081008000A128A1144210A128A1166
:1003080083120313AA01AA0A0A128A1128200A12C0
:100318008A11882983120313921412147D308316CC
:1003280003139200831203131215831603138C14FC
:100338000800831603131815333099001812831216
:1003480003139817831603139816080083160313CC
:10035800811281110115811401148B1608004B3488
:02400E003AFF77
:00000001FF
