:04000000803116280D
:100008007E14803120007F08FC008B1A0B1D1128FC
:10001800063095000B11803120207C082000FF005D
:100028007E10090080311828FD0181316221A50068
:100038007E10200080318B287D0803192F280A3074
:100048007D0203182B28043020008E0673281030F8
:100058007D02031831282000722811307D02031810
:100068003728200070287D1C55280130F9000230FF
:10007800F0000030F1007D08EF3EF200FF30031879
:100088000030F3008031F42080317008890A4D284F
:10009800F935890B4C2879082000250503197028A3
:1000A80072280130F9000230F0000030F1007D08BC
:1000B800EF3EF200FF3003180030F3008031F420E7
:1000C80080317008890A6928F935890B6828790808
:1000D80020002505031972280E1173280E1501300A
:1000E800F9007908FD0722307D06031D08000E116E
:1000F800FD010B30FB002630FA006630F900F90BE1
:100108008328FA0B8328FB0B8328003208008131EF
:10011800452180318131562180312000911E91285E
:10012800230019082000A0002008A400233024067A
:10013800031DB9282A3023009A0082302000A1002C
:10014800DD30A000A00BA628A10BA6280032413064
:1001580023009A0082302000A100DD30A000A00B0F
:10016800B328A10BB328003291282A302000240696
:10017800031D9128911EBE28230019082000A00005
:100188002008A3004130230603190F166630A20089
:100198007730A1002430A000A00BD028A10BD028D4
:1001A800A20BD028000020000F12233023009A0051
:1001B80082302000A100DD30A000A00BE128A10BB7
:1001C800E1280032413023009A0082302000A1004B
:1001D800DD30A000A00BEE28A10BEE2800329128FC
:1001E800F601F11FFE28F009F109F00A0319F10AD6
:1001F800F601F60AF31F0929F209F309F20A0319AD
:10020800F30A0130F4007408F606F701F8017008E3
:10021800710403193829F501F50AF11B1D2901306C
:10022800F035F10D890B14290130F4007408F50735
:1002380011290130F735F80D890B1E297108730251
:10024800031D282970087202031C2F297008F20266
:100258007108F33B77140130F136F00C890B302923
:100268000130F502031D1D29760803194029F709F5
:10027800F809F70A0319F80A7808F1007708F00076
:10028800080021000E1120000E1521000F129512F2
:1002980015169511151195101514063020009500A6
:1002A8008B16080023009D171E129F111E159C0116
:0E02B80033309B001D169D169E160800413423
:020000040001F9
:04000E00E2C9FFDC68
:00000001FF
