:04000000803119280A
:100008007E14803120007F08FC008B1A0B1D1428F9
:100018000B11063095002B03031D142880312C206A
:100028007C082000FF007E10090080311B28FD019C
:10003800AC01F53084008030850020308600003027
:1000480087000C30813112217E102000813118295F
:100058007D0803193B280A307D020318372804302D
:1000680020008E067F2810307D0203183D282000CE
:100078007E2811307D020318432820007C287D1C2F
:1000880061280130F9000230F0000030F1007D08ED
:10009800EF3EF200FF3003180030F3008031A42057
:1000A80080317008890A5928F935890B5828790848
:1000B80020002A0503197C287E280130F900023027
:1000C800F0000030F1007D08EF3EF200FF30031829
:1000D8000030F3008031A42080317008890A752827
:1000E800F935890B7428790820002A0503197E2818
:1000F8000E117F280E150130F9007908FD0722300E
:100108007D06031D08000E11FD010B30FB00263093
:10011800FA006630F900F90B8F28FA0B8F28FB0BD1
:100128008F2800320130F90079082000AA077B30B7
:100138002A02031C08004130F9007908AA000800C7
:10014800F601F11FAE28F009F109F00A0319F10AC6
:10015800F601F60AF31FB928F209F309F20A03199E
:10016800F30A0130F4007408F606F701F801700884
:1001780071040319E828F501F50AF11BCD280130AF
:10018800F035F10D890BC4280130F4007408F50727
:10019800C1280130F735F80D890BCE287108730294
:1001A800031DD82870087202031CDF287008F202A9
:1001B8007108F33B77140130F136F00C890BE02815
:1001C8000130F502031DCD2876080319F028F70938
:1001D800F809F70A0319F80A7808F1007708F00017
:1001E80008005034413447344534523449342E34AD
:1001F8002E342E342334413401348B1721009512C8
:10020800151695111511951015148B160800210057
:100218000E1120000E15813101210800FE00120088
:100228001E00FE0B1329003481310B2181311B295B
:020000040001F9
:04000E00E2C9FFDC68
:00000001FF
