:04000000803116280D
:100008007E14803120007F08FC008B1A0B1D1128FC
:10001800063095000B11803120207C082000FF005D
:100028007E10090080311828FD0181313021A4009B
:100038007E1020008031DC287D0803192F280A3023
:100048007D0203182B28043020008E0673281030F8
:100058007D02031831282000722811307D02031810
:100068003728200070287D1C55280130F9000230FF
:10007800F0000030F1007D08EF3EF200FF30031879
:100088000030F30080318B2080317008890A4D28B8
:10009800F935890B4C2879082000240503197028A4
:1000A80072280130F9000230F0000030F1007D08BC
:1000B800EF3EF200FF3003180030F30080318B2050
:1000C80080317008890A6928F935890B6828790808
:1000D80020002405031972280E1173280E1501300B
:1000E800F9007908FD0722307D06031D08000E116E
:1000F800FD010B30FB002630FA006630F900F90BE1
:100108008328FA0B8328FB0B832800320800F601AA
:10011800F11F9528F009F109F00A0319F10AF6010F
:10012800F60AF31FA028F209F309F20A0319F30AE1
:100138000130F4007408F606F701F801700871043C
:100148000319CF28F501F50AF11BB4280130F03561
:10015800F10D890BAB280130F4007408F507A828C5
:100168000130F735F80D890BB52871087302031DA6
:10017800BF2870087202031CC6287008F2027108B2
:10018800F33B77140130F136F00C890BC7280130A6
:10019800F502031DB42876080319D728F709F809CA
:1001A800F70A0319F80A7808F1007708F000080040
:1001B8008131132180318131242180312000911E29
:1001C8001029230019082000A0002008A30061308E
:1001D8002306031DFE280F161530A2004B30A10080
:1001E800D130A000A00BF628A10BF628A20BF62808
:1001F80000001029623020002306031D10290F1665
:100208003330A200BC30A1001030A000A00B0A2996
:10021800A10B0A29A20B0A2920000F12E2282100AB
:100228000E1120000E1521000F12951215169511AA
:100238001511951015140630200095008B1608002E
:1002480023009D171E129F111E159C0133309B0021
:0A0258001D169D169E160800413485
:020000040001F9
:04000E00E2C9FFDC68
:00000001FF
