:04000000803116280D
:100008007E14803120007F08FC008B1A0B1D1128FC
:10001800063095000B11813118217C082000FF0063
:100028007E10090080311828FD018131F121A800D6
:100038007E102000803120288131D4218031813107
:10004800E52180312000A701A70105302702031808
:100058005A282A308031A82080310B302000A60091
:100068002630A5006630A400A40B3828A50B382834
:10007800A60B382800324B308031A82080310B3055
:100088002000A6002630A5006630A400A40B4A284C
:10009800A50B4A28A60B4A28003201302000A400EC
:1000A8002408A70705302702031C2D280B30A600BB
:1000B8002630A5006630A400A40B6028A50B602894
:1000C800A60B602800322000A7010530270203187C
:1000D8009A2823308031A82080310B302000A600D8
:1000E8002630A5006630A400A40B7828A50B782834
:1000F800A60B782800324B308031A82080310B3095
:100108002000A6002630A5006630A400A40B8A288B
:10011800A50B8A28A60B8A28003201302000A400EB
:100128002408A70705302702031C6D280B30A600FA
:100138002630A5006630A400A40BA028A50BA02893
:10014800A60BA028003226282000A200A301053013
:1001580023020318C9280E15F930A0000000A00BCF
:10016800B2280032000020000E11F930A000000073
:10017800A00BBB280032000001302000A00020089E
:10018800A30705302302031CAF280E150830A10071
:10019800C930A000A00BCE28A10BCE280032200029
:1001A8000E11F930A0000000A00BD7280032000083
:1001B8002000A30108302302031816290130A000EB
:1001C800230AE728A035890BE62820082205031909
:1001D800EF280E15F0280E11F930A0000000A00B32
:1001E800F2280032000001302000A000230AFD2878
:1001F800A035890BFC2820082205031905290E11B2
:1002080006290E15F930A0000000A00B08290032BD
:10021800000001302000A0002008A30708302302B6
:10022800031CE2280E1108007D08031927290A304B
:100238007D0203182329043020008E066B29103014
:100248007D020318292920006A2911307D0203182C
:100258002F29200068297D1C4D290130F900023022
:10026800F0000030F1007D08EF3EF200FF30031887
:100278000030F3008131832181317008890A4529D2
:10028800F935890B442979082000280503196829BC
:100298006A290130F9000230F0000030F1007D08D1
:1002A800EF3EF200FF3003180030F3008131832164
:1002B80081317008890A6129F935890B6029790823
:1002C8002000280503196A290E116B290E15013023
:1002D800F9007908FD0722307D06031D08000E117C
:1002E800FD010430FB000C30FA003530F900F90B41
:1002F8007B29FA0B7B29FB0B7B2900320800F601CE
:10030800F11F8D29F009F109F00A0319F10AF60124
:10031800F60AF31F9829F209F309F20A0319F30AF6
:100328000130F4007408F606F701F801700871044A
:100338000319C729F501F50AF11BAC290130F0357D
:10034800F10D890BA3290130F4007408F507A029E1
:100358000130F735F80D890BAD2971087302031DBB
:10036800B72970087202031CBE297008F2027108CE
:10037800F33B77140130F136F00C890BBF290130BB
:10038800F502031DAC2976080319CF29F709F809E6
:10039800F70A0319F80A7808F1007708F00008004E
:1003A80021000E1120000E1521000F1295121516AE
:1003B80095111511951015140630200095008B160F
:1003C800080023009D171E129F111E159C01333033
:0C03D8009B001D169D169E160800413467
:020000040001F9
:04000E00E2C9FFDC68
:00000001FF
