:0400000080313E28E5
:100008007E14803120007F08FB008B1A0B1D1828F6
:10001800063095000B112303031D162880314A2052
:1000280080313928FD0139282100911E3928200006
:10003800911E392823001908FA007A08FC002A3092
:100048007C0603192B2823307C06031D32287C08E4
:10005800FA007A082000A000A30139287C08FA00D9
:100068007A082000A100A301A30A7B082000FF0052
:100078007E10090080314028FC01FD01A001A1018A
:10008800A201A3017E10200081312C297D080319CB
:10009800A1280A307D0203185528043020008E0656
:1000A800A32810307D02031CA12811307D02031CF7
:1000B8009E287D1C7F2820002208203E860087017C
:1000C8000130F9000230F0000030F1007D08EF3E09
:1000D800F200FF3003180030F3008031B520803182
:1000E8007008890A7828F935890B77287908010575
:1000F80003199E28A12820002208203E8600870197
:100108000130F9000230F0000030F1007D08EF3EC8
:10011800F200FF3003180030F3008031B520803141
:100128007008890A9828F935890B972879080105F4
:100138000319A12820000E11A32820000E15013054
:10014800F9007908FD0722307D06031D08000E110D
:10015800FD012208031DB328A201A20A0800A2017A
:100168000800F601F11FBF28F009F109F00A031988
:10017800F10AF601F60AF31FCA28F209F309F20A8E
:100188000319F30A0130F4007408F606F701F801C0
:10019800700871040319F928F501F50AF11BDE2826
:1001A8000130F035F10D890BD5280130F4007408C1
:1001B800F507D2280130F735F80D890BDF287108CB
:1001C8007302031DE92870087202031CF0287008E6
:1001D800F2027108F33B77140130F136F00C890B09
:1001E800F1280130F502031DDE28760803190129DC
:1001F800F709F809F70A0319F80A7808F1007708E7
:10020800F000080021000E1120000E11813120217C
:100218008131813114210B17210091168B170800A9
:1002280023009D171E129F111E159C0133309B0041
:100238001D169D169E16080021009512151695117B
:100248001511951015140630200095008B1608001E
:080258008131062181312F29BB
:020000040001F9
:04000E00E2C9FFDC68
:00000001FF
