:060000000A128A11122809
:10000800FE00030EF4000408F5000A08F600831247
:1000180003137F08F7000A128A112B280A128A1183
:100028001528F801F901FA01FB01FC01A001A10161
:10003800A201A301A401A501A601A701A8010A1212
:100048008A114122FD0083010A128A11312983167F
:1000580003138C1C5E28831203138C1C5E288C10DF
:100068000130F3007308A007FA302006031DA92801
:10007800A0010130F3007308A1077A030319482887
:1000880002307A06031DA9280A128A11FE210A12D3
:100098008A110230831203132106031D5628FC011E
:1000A800FC0A851205302106031DA9288516A10121
:1000B800FC01A9280B1A8B1C66280B128B108B16B7
:1000C8000B11A9288B1A0B1D7A280B1183122608ED
:1000D800031D74280A128A11C4210A128A11A92838
:1000E8000A128A11B6200A128A11A9288316031344
:1000F8000C1C9828831203130C1C98280C10013030
:10010800F3007308A40725302406031DA928250831
:10011800031D93280230F3007308FA009528FA01AA
:10012800A501A4011F15A928831603130C1FA928CC
:10013800831203130C1FA9280C133D301E02031C45
:10014800A728AB01A928AB01AB0A770883120313D0
:10015800FF0076088A0075088400740E8300FE0E7E
:100168007E0E090006308312031381000B11F20181
:100178007808031DC128F201C328F201F20A061CFF
:10018800D6280130F0007B0ACB280310F00DFF3E83
:10019800031DC9287008F1007208783E84007108B0
:1001A8008004E7280130F0007B0ADC280310F00DFA
:1001B800FF3E031DDA287008FF3AF1007208783E06
:1001C8008400710880050130F0007008FB070830D2
:1001D8007B06031D0800FB01A6010B168B10831676
:1001E800031301178B127208783E840000088312EB
:1001F800031399007203031D08002A307806031DB3
:100208000E2979087D06031D0E290130F0007008BB
:10021800A2070F29A20123307806031D1C2979089B
:100228007D06031D1C290130F0007008A3071D2955
:10023800A30103302206031D26297A08031D262957
:10024800FA01FA0A02302306031D2E297A03031D38
:100258002E29FA01F801F90108000A128A119321DE
:100268000A128A11742983120313081288160813B4
:100278007C03031D742987150330AA009730A90051
:10028800A90B4429AA0B442949298312031387116E
:100298000330AA009730A900A90B5029AA0B5029AE
:1002A80055297429831203130816881208137C032E
:1002B800031D742987150330AA009730A900A90BDC
:1002C8006329AA0B63296829831203138711033052
:1002D800AA009730A900A90B6F29AA0B6F297429C6
:1002E8007A030319372902307A06031956297A083E
:1002F800031D7429831203132B08031D8B29081669
:100308008812081308108810081188117429081217
:100318008812081308148814081588157429FA0116
:1003280083120313AB01AB0A831603138801051468
:1003380085128711061483120313081488140815EC
:100348008815081288120813851287110A128A1153
:10035800E6210A128A110A128A1112220A128A1135
:100368000A128A112E220A128A110A128A113922B5
:100378000A128A110B178B170A128A1121220800F8
:10038800CE30831203138100061CDE290130F000F1
:100398007008A8070D302806031D0800A8010B16D1
:1003A8008B108316031301138B1283120313A601F8
:1003B800A60A0800A8018B120B168B1083160313CC
:1003C80001170800831603139F139F151F159F1409
:1003D8001F10831203139F121F129F1183160313FA
:1003E8001F17831203139F171F171F148316031356
:1003F8000C170800831203130818052A081488101C
:10040800080088180A2A88140811080008190F2AF1
:1004180008158811080088150810080083120313AE
:10042800921412147D30831603139200831203135F
:100438001215831603138C1408008316031318155A
:100448003330990018128312031398178316031375
:100458009816080083120313901610169011901026
:100468001014831603130C14080083160313811247
:0C047800811101118114011008004B34A7
:02400E003AFF77
:00000001FF
