:060000000A128A11122809
:10000800FE00030EFA000408FB000A08FC00831235
:1000180003137F08FD000A128A112E280A128A117A
:100028001528F001F101F201F301F401F501F601DF
:10003800F701B60183133530FD000130FE0017309B
:10004800FF00203084000A128A11302183010A122D
:100058008A1155290B1A8B1C36280B128B108B16FC
:100068000B11EB288B1A0B1DB4280B117408031DF8
:100078005C28CE3081000B11061C54280130F80092
:100088007808F7070D307706031DEB28F7010B16E4
:100098008B108316031301138B12F401F40AEB2857
:1000A800F7018B120B168B10831603130117EB281D
:1000B8000630831281000B11061C70280130F800ED
:1000C800710A68280310F80DFF3E031D662878089A
:1000D800F9007908F5047E280130F800710A7628BD
:1000E8000310F80DFF3E031D74287808FF3AF90045
:1000F8007908F5050130F8007808F107083071062D
:10010800031DEB28F101F4010B168B108316031362
:1001180001178B1241307502031C96285B3075025B
:10012800031C9E2861307502031CB0287B307502C1
:100138000318B02841307506031DA7280130F800C0
:100148007808F007A828F00105307006031DB028CC
:10015800F030831203138800750883129900EB2886
:10016800831603138C1CC028831203138C1CC0280D
:100178008C1004308706EB28831603130C1CDE282A
:10018800831203130C1CDE280C100130F8007808C9
:10019800F20725307206031DEB287308031DD928C2
:1001A8000230F8007808B600DB28B601F301F20146
:1001B8001F15EB28831603130C1FEB288312031358
:1001C8000C1FEB280C133D301E020318B5017D08E7
:1001D8008312FF007C088A007B0884007A0E830063
:1001E800FE0E7E0E090083120313B601B501B50A8F
:1001F8008316031388010514851207110614831248
:10020800031308148814081588150812881208138F
:10021800851207110A128A114D210A128A110A122F
:100228008A113D21080063346434663464346134CF
:10023800203461346734203463346434663464347D
:10024800673420346734663420344B340134C8347E
:100258007E088A007F0882002C210A128A118000F9
:10026800840A04087D0603190034FF0A0319FE0AEC
:100278003029831603131815333099001812831286
:10028800031398178316031398168B170B16011769
:1002980008008316031381128111011181140110C2
:0E02A80008000A128A11F7200A128A115A2938
:02400E003AFF77
:00000001FF
