:060000000A128A11122809
:10000800FE00030EF7000408F8000A08F90083123E
:1000180003137F08FA000A128A1138280A128A1173
:100028001528F001F101F201F301F401F501B50120
:10003800B601B701B801B901BA01BB018313353064
:10004800FD000030FE00BF30FF00203084000A129F
:100058008A11EC200A128A110A128A110821FB005F
:1000680083010A128A117828831603138C1C6B28C3
:10007800831203138C1C6B288C100130F600760851
:10008800B607FA303606031D6B28B6010130F600B4
:100098007608F2073D03031D6B288816081308121B
:1000A8000A128A11D4200A128A1102307206031D1C
:1000B800622883120313B501B50A8512053072064A
:1000C800031D6B28831203138516F201B5017A0804
:1000D80083120313FF0079088A0078088400770EDA
:1000E8008300FE0E7E0E09000A128A11A0200A1251
:1000F8008A1183120313BD01BD0A831203133D0342
:10010800031D81283503031D812887150330BF008F
:100118009730BE00BE0B8E28BF0B8E289328831203
:10012800031387110330BF009730BE00BE0B9A2817
:10013800BF0B9A289F28812883120313BD01BC0195
:10014800BC0A8316031388010514851207110614C7
:1001580087118312031308148814081588150812C8
:10016800881208138512071187110A128A11F920BB
:100178000B178B17080063346434663464346134B5
:10018800203461346734203463346434663464342E
:100198006734203467346634203401340134C83479
:1001A800831203130818DB2808148810080088181D
:1001B800E0288814081108000819E528081588118E
:1001C80008008815081008007E088A007F08820049
:1001D800E8200A128A118000840A04087D0603199F
:1001E8000034FF0A0319FE0AEC2883120313921441
:1001F80012147D3083160313920083120313121511
:0A020800831603138C1408004B3416
:02400E003AFF77
:00000001FF
