:060000000A128A11122809
:10000800FE00030EF4000408F5000A08F600831247
:1000180003137F08F7000A128A112B280A128A1183
:100028001528F801F901FA01FB01FC01A001A10161
:10003800A201A301A401A501A601A701A8010A1212
:100048008A113922FD0083010A128A1130290B1AFC
:100058008B1C3D280B128B108B160B112603031DCE
:10006800A828E030F3000000F30B37283B280000F5
:10007800A8288B1A0B1D50280B112608031D4A2887
:100088000A128A11BB210A128A11A8280A128A1197
:10009800B5200A128A11A828831603138C1C8328FA
:1000A800831203138C1C83288C100130F30073080F
:1000B800A007FA302006031DA828A0010130F3008C
:1000C8007308A1077A0303196D2802307A06031D05
:1000D800A8280A128A11F5210A128A1102308312FD
:1000E80003132106031D7B28FC01FC0A8512053039
:1000F8002106031DA8288516A101FC01A82883163E
:1001080003130C1C9728831203130C1C97280C103C
:100118000130F3007308A40725302406031DA8281E
:10012800A4011F15A828831603130C1FA8288312DF
:1001380003130C1FA8280C133D301E02031CA6280D
:10014800AB01A828AB01AB0A770883120313FF00A1
:1001580076088A0075088400740E8300FE0E7E0EF1
:10016800090006308312031381000B11F20178088D
:10017800031DC028F201C228F201F20A061CD52884
:100188000130F0007B0ACA280310F00DFF3E031D62
:10019800C8287008F1007208783E8400710880044D
:1001A800E6280130F0007B0ADB280310F00DFF3E43
:1001B800031DD9287008FF3AF1007208783E8400C0
:1001C800710880050130F0007008FB0708307B06D5
:1001D800031D0800FB01A6010B168B1083160313E1
:1001E80001178B127208783E8400000883120313EB
:1001F80099007203031D08002A307806031D0D2993
:1002080079087D06031D0D290130F0007008A2074A
:100218000E29A20123307806031D1B2979087D06C3
:10022800031D1B290130F0007008A3071C29A30136
:1002380003302206031D25297A08031D2529FA0102
:10024800FA0A02302306031D2D297A03031D2D29DE
:10025800FA01F801F90108000A128A118A210A1222
:100268008A116B29831203130812881608137C035A
:10027800031D6B2987150330AA009730A900A90B25
:100288004329AA0B432948298312031387110330F2
:10029800AA009730A900A90B4F29AA0B4F29542966
:1002A8006B29831203130816881208137C03031D95
:1002B8006B298715E430A900A90B60290000831277
:1002C80003138711E430A900A90B682900007A03F9
:1002D8000319362902307A06031955297A08031DAD
:1002E8006B29831203132B08031D82290816881211
:1002F800081308108810081188116B290812881231
:10030800081308148814081588156B29FA01831234
:100318000313AB01AB0A8316031388010514851276
:1003280087110614831203130814881408158815F6
:10033800081288120813851287110A128A11DD2102
:100348000A128A110A128A1109220A128A110A1239
:100358008A1125220A128A110A128A1130220A12D7
:100368008A110B178B170A128A1118220800CE302F
:10037800831203138100061CD5290130F000700890
:10038800A8070D302806031D0800A8010B168B10BE
:100398008316031301138B1283120313A601A60AF3
:1003A8000800A8018B120B168B1083160313011774
:1003B8000800831603139F139F151F159F141F1002
:1003C800831203139F121F129F11831603131F1703
:1003D800831203139F171F171F14831603130C1779
:1003E8000800831203130818FC2908148810080051
:1003F8008818012A8814081108000819062A0815FF
:100408008811080088150810080083120313921435
:1004180012147D30831603139200831203131215EE
:10042800831603138C14080083160313181533302E
:10043800990018128312031398178316031398163A
:1004480008008312031390161016901190101014C0
:10045800831603130C1408008316031381128111E9
:0C0468000111811401100B1608004B3428
:02400E003AFF77
:00000001FF
