:060000000A128A11122809
:10000800FE00030EF0000408F1000A08F200831253
:1000180003137F08F3000A128A1119280A128A1199
:10002800152883010A128A113D288B1A0B1D2128D5
:100038000B119C308100013088067308FF0072089C
:100048008A0071088400700E8300FE0E7E0E09007F
:1000580083160313811281110111811401108B176A
:100068008B1608008316031388010A128A112C20A4
:0E00780008000A128A1136200A128A11422844
:02400E003AFF77
:00000001FF
