:060000000A128A11122809
:10000800FE00030EF2000408F3000A08F40083124D
:1000180003137F08F5000A128A111D280A128A1193
:100028001528F601F701F801F90183010A128A116E
:10003800F5280B1A8B1C81288B10F6016430760288
:10004800031836280D30F000F00B2828831203130C
:10005800061CD2280130F0007008F60764307602DA
:10006800031C2628061836280330F100B930F000A2
:10007800F00B3C28F10B3C28F601083076020318F7
:10008800762883120313061C57280130F000760ADD
:100098004F280310F00DFF3E031D4D287008F10096
:1000A8007108F80465280130F000760A5D2803100D
:1000B800F00DFF3E031D5B287008FF3AF100710840
:1000C800F8050330F1009730F000F00B6928F10BC8
:1000D80069286E280130F0007008F60708307602AB
:1000E800031C452823307806031D7C280A307D2808
:1000F8007808831203139900D2288B1A0B1DD22873
:100108000B110130F0007008F6070830760203186A
:10011800AC28061C9D280130F000760A95280310AB
:10012800F00DFF3E031D93287008F1007108F804D4
:10013800D2280130F000760AA3280310F00DFF3E04
:10014800031DA1287008FF3AF1007108F805D228AC
:10015800F0308800F6010B168B12F6010830760293
:100168000318D1280130F000760ABC280310F00DDE
:10017800FF3E031DBA2870087805303E831203132A
:1001880099002130F000F00BC7280130F00070080A
:10019800F60708307602031CB628F60175088312A4
:1001A8000313FF0074088A0073088400720E83002A
:1001B800FE0E7E0E09008316031306148B170B160A
:1001C8000117181533309900181283120313981762
:1001D8008316031398168801FF30831203138800CF
:0E01E80008000A128A11DF200A128A11FA2872
:02400E003AFF77
:00000001FF
